:100000000C942A000C9440050C9469050C9447004C
:100010000C9447000C9447000C9447000C94470044
:100020000C9447000C9447000C9447000C94470034
:100030000C9447000C9447000C9447000C94470024
:100040000C9447000C9447000C9447000C94470014
:100050000C94470011241FBECFE5D8E0DEBFCDBF12
:1000600010E0A0E6B0E0E8E0F0E102C005900D92FB
:10007000A63AB107D9F720E0A6EAB0E001C01D9288
:10008000AA3AB207E1F70E9485030C9402080C9487
:100090000000860F971F08959C01269FC001279F8F
:1000A000900D369F900D11240895861B970B08958F
:1000B0008F929F92AF92BF92CF92DF92EF92FF9278
:1000C0004B015C0169017A0120E030E0A901C70120
:1000D000B6010E94FF0581110CC060E081E00E9422
:1000E000820280E690E00E949E0260E070E0CB0118
:1000F00006C0A7019601C501B4010E940406FF9045
:10010000EF90DF90CF90BF90AF909F908F90089529
:100110000E9473040E94E10160E080E00E9482027C
:1001200086E690E00E949E0260E081E00E948202EA
:10013000C12CD12C760110E200E0D0E00E94300109
:10014000C82F8E32D9F30E949502C33681F40E94E3
:10015000780260E080E00E94820286E690E00E94E1
:100160009E0260E081E00E94820200E0D0E080ED2B
:100170008C0F8A3038F4DD0F8D2F880F880FD80F41
:10018000DC0FD053CB3231F0CF3221F0CD3211F031
:10019000CA3219F41C2F0D2FD0E0CD3379F61B3263
:1001A00049F01CF41A3261F156C01D32B1F01F3211
:1001B000D1F151C06D2F0D2E000C770B802F002E2A
:1001C000000C990B0E944900BC01990F880B990BF8
:1001D0000E94AE066B017C013EC06D2F0D2E000CFF
:1001E000770B802F002E000C990B0E945500BC014C
:1001F000990F880B990B0E94AE066B017C012BC0F6
:100200006D2F0D2E000C770B802F002E000C990BFC
:100210000E944C00BC01990F880B990B0E94AE06FE
:100220006B017C0118C06D2F0D2E000C770B880B15
:10023000990B0E94AE066B017C01602F002E000C12
:10024000770B880B990B0E94AE06A70196010E94BE
:1002500058006B017C01C701B6010E94B7026ECF46
:10026000FF920F931F93CF93DF9361E080E10E9491
:10027000830461E081E10E94830461E082E10E94E5
:10028000830461E083E10E9483040F2EFEE2FF2ECF
:10029000F02D10E027C000E1010F60E0802F0E94E8
:1002A0008304D0E018C0C4E1CD0F8C2F0E94080554
:1002B000811110C0E12FF0E0EE0FFF1FEE0FFF1FC6
:1002C000EB58FF4FED0FF11DF0808C2F0E940805B9
:1002D0008823D9F3DF5FD43030F361E0802F0E94B0
:1002E00083041F5F1430B8F28F2DDF91CF911F91DF
:1002F0000F91FF900895CF93C82F84FB662760F974
:1003000084E00E948304C5FB662760F985E00E94B3
:100310008304C6FB662760F986E00E9483046C2F85
:10032000661F6627661F87E00E94830460E088E0FE
:100330000E94830460E089E00E94830461E08AE017
:100340000E9483048FEC97E00197F1F700C0000052
:1003500060E08AE00E9483046C2F617084E00E9458
:100360008304C1FB662760F985E00E948304C2FB19
:10037000662760F986E00E948304C3FB662760F964
:1003800087E00E94830460E088E00E94830460E0CC
:1003900089E00E94830461E08AE00E9483048FEC7C
:1003A00097E00197F1F700C0000060E08AE00E944A
:1003B00083048FE097E20197F1F700C00000CF912E
:1003C00008958FE39CE90197F1F700C0000082E0F7
:1003D0000E947B018FEC97E00197F1F700C00000CD
:1003E00088E20E947B018FEC97E00197F1F700C053
:1003F00000008CE00E947B018FEC97E00197F1F701
:1004000000C0000081E00E947B018FE99FE001971E
:10041000F1F700C0000086E00E947B018FEC97E0BE
:100420000197F1F700C0000080E80E947B01089569
:10043000CF93C82F84FB662760F984E00E94830471
:10044000C5FB662760F985E00E948304C6FB66272A
:1004500060F986E00E9483046C2F661F6627661F82
:1004600087E00E94830461E088E00E94830460E0EA
:1004700089E00E94830461E08AE00E9483048FEC9B
:1004800097E00197F1F700C0000060E08AE00E9469
:1004900083046C2F617084E00E948304C1FB662793
:1004A00060F985E00E948304C2FB662760F986E05C
:1004B0000E948304C3FB662760F987E00E948304DF
:1004C00061E088E00E94830460E089E00E94830488
:1004D00061E08AE00E9483048FEC97E00197F1F7D6
:1004E00000C0000060E08AE00E948304CF9108957C
:1004F00081E00E947B018FEC97E00197F1F700C04B
:1005000000000895882329F0813031F080E090E0E8
:1005100005C080E890E002C080EC90E0603110F40B
:10052000860F911D0E947B0108950E9418028FEC96
:1005300097E00197F1F700C0000008950F931F9313
:10054000CF938C01C0E009C00E9418028FEC97E0A5
:100550000197F1F700C00000CF5FF801EC0FF11D2B
:1005600080818111F1CFCF911F910F9108958F92CA
:100570009F92AF92BF92EF92FF921F93CF93DF9320
:10058000CDB7DEB760970FB6F894DEBF0FBECDBF14
:100590004B015C0120E030E0A9010E94FF058111C0
:1005A00003C080E30E94180220E030E0A901C501E9
:1005B000B4010E94FF0588233CF4B7FAB094B7F861
:1005C000B0948DE20E941802C501B4010E94760623
:1005D0007B01072E000C880B990B0E94AE069B0135
:1005E000AC01C501B4010E9492054B015C0110E011
:1005F00010C0C7016AE070E00E94CB07E1E0F0E0C4
:10060000EC0FFD1FE10FF11D805D8083E62EF72EBC
:100610001F5FE114F10469F70DC0E12FF0E031979D
:1006200021E030E02C0F3D1FE20FF31F80810E947C
:10063000180211501111F1CF20E030E0A901C501DD
:10064000B4010E94FF05882309F44FC08EE20E9486
:10065000180220E030E04AE754E4C501B4010E94EA
:100660005E070E947D06AB012DC09A01ADECBCEC8B
:100670000E94DF079695879596958795969587951D
:100680009C01220F331F880F991F880F991F880F15
:10069000991F820F931F9A01281B390BC901E1E0B2
:1006A000F0E0EC0FFD1FE10FF11D805D80839A01EA
:1006B0000E94DF07AC01569547955695479556958C
:1006C00047951F5F4115510581F60DC0E12FF0E000
:1006D000319781E090E08C0F9D1FE80FF91F80811A
:1006E0000E94180211501111F1CF60960FB6F894C4
:1006F000DEBF0FBECDBFDF91CF911F91FF90EF9076
:10070000BF90AF909F908F9008950E94880080E0E6
:1007100090E00895982F96959695969587706130FC
:1007200031F008F454C0623009F4A1C0089591304A
:10073000C1F028F0923039F19330B9F108954AB3FD
:1007400021E030E0B90102C0660F771F8A95E2F719
:10075000CB01962F909594239ABB9BB3892B8BBB8F
:10076000089547B321E030E0B90102C0660F771F5A
:100770008A95E2F7CB01962F9095942397BB98B377
:10078000892B88BB089544B321E030E0B90102C051
:10079000660F771F8A95E2F7CB01962F90959423E9
:1007A00094BB95B3892B85BB089541B321E030E01C
:1007B000B90102C0660F771F8A95E2F7CB01962F29
:1007C0009095942391BB92B3892B82BB089591306D
:1007D000C1F028F0923039F19330B9F108954AB35D
:1007E00021E030E0B90102C0660F771F8A95E2F779
:1007F000CB018095942F98239ABB9BB389238BBB05
:10080000089547B321E030E0B90102C0660F771FB9
:100810008A95E2F7CB018095942F982397BB98B3E4
:10082000892388BB089544B321E030E0B90102C0B8
:10083000660F771F8A95E2F7CB018095942F982356
:1008400094BB95B3892385BB089541B321E030E083
:10085000B90102C0660F771F8A95E2F7CB01809538
:10086000942F982391BB92B3892382BB0895913032
:1008700099F028F09230E9F0933041F108954AB3AD
:1008800021E030E0B90102C0660F771F8A95E2F7D8
:10089000CB01842B8ABB089547B321E030E0B90136
:1008A00002C0660F771F8A95E2F7CB01842B87BBC6
:1008B000089544B321E030E0B90102C0660F771F0C
:1008C0008A95E2F7CB01842B84BB089541B321E0E4
:1008D00030E0B90102C0660F771F8A95E2F7CB01BD
:1008E000842B81BB0895CF93C0E009C0EC2FF0E0CA
:1008F000EB57FF4F60818C2F0E948A03CF5FC0327D
:10090000A8F3CF910895982F969596959695877010
:100910006130E1F5913099F028F09230E9F09330B0
:1009200041F108954BB321E030E0B90102C0660FF8
:10093000771F8A95E2F7CB01842B8BBB089548B3D0
:1009400021E030E0B90102C0660F771F8A95E2F717
:10095000CB01842B88BB089545B321E030E0B90179
:1009600002C0660F771F8A95E2F7CB01842B85BB07
:10097000089542B321E030E0B90102C0660F771F4D
:100980008A95E2F7CB01842B82BB089561113FC0A9
:100990009130A1F028F09230F9F0933059F1089598
:1009A0004BB321E030E0B90102C0660F771F8A9592
:1009B000E2F7CB01809584238BBB089548B321E0F7
:1009C00030E0B90102C0660F771F8A95E2F7CB01CC
:1009D0008095842388BB089545B321E030E0B901B8
:1009E00002C0660F771F8A95E2F7CB0180958423BA
:1009F00085BB089542B321E030E0B90102C0660F23
:100A0000771F8A95E2F7CB018095842382BB0895F6
:100A1000982F969596959695482F4770913081F02E
:100A200028F09230B9F09330F9F028C099B3892FAB
:100A300090E002C0959587954A95E2F781700895F8
:100A400026B330E0C90102C0959587954A95E2F733
:100A50008170089523B330E0C90102C09595879550
:100A60004A95E2F78170089520B330E0C90102C0D1
:100A7000959587954A95E2F78170089580E00895ED
:100A80001F920F920FB60F9211242F933F934F9303
:100A90005F936F937F938F939F93AF93BF93EF93E6
:100AA000FF93E091A800F091A900309709F0099513
:100AB000FF91EF91BF91AF919F918F917F916F9136
:100AC0005F914F913F912F910F900FBE0F901F900C
:100AD00018951F920F920FB60F9211242F933F93E8
:100AE0004F935F936F937F938F939F93AF93BF9336
:100AF000EF93FF93E091A600F091A700309709F0E3
:100B00000995FF91EF91BF91AF919F918F917F9147
:100B10006F915F914F913F912F910F900FBE0F906A
:100B20001F9018955058BB27AA270E94AA050C941D
:100B300024070E94160738F00E941D0720F039F4A0
:100B40009F3F19F426F40C9413070EF4E095E7FB8D
:100B50000C940D07E92F0E94350758F3BA17620766
:100B600073078407950720F079F4A6F50C945707CE
:100B70000EF4E0950B2EBA2FA02D0B01B9019001B8
:100B80000C01CA01A0011124FF27591B99F0593FFC
:100B900050F4503E68F11A16F040A22F232F342F44
:100BA0004427585FF3CF469537952795A795F04092
:100BB0005395C9F77EF41F16BA0B620B730B840BA7
:100BC000BAF09150A1F0FF0FBB1F661F771F881F5F
:100BD000C2F70EC0BA0F621F731F841F48F48795B7
:100BE00077956795B795F7959E3F08F0B0CF9395A9
:100BF000880F08F09927EE0F9795879508950E9422
:100C0000E90608F481E008950E9418060C94240770
:100C10000E941D0758F00E94160740F029F45F3F1C
:100C200029F00C940D0751110C9458070C941307DC
:100C30000E94350768F39923B1F3552391F3951B6F
:100C4000550BBB27AA2762177307840738F09F5FED
:100C50005F4F220F331F441FAA1FA9F335D00E2E5A
:100C60003AF0E0E832D091505040E695001CCAF7C7
:100C70002BD0FE2F29D0660F771F881FBB1F26178A
:100C800037074807AB07B0E809F0BB0B802DBF0161
:100C9000FF2793585F4F3AF09E3F510578F00C9430
:100CA0000D070C9458075F3FE4F3983ED4F3869504
:100CB00077956795B795F7959F5FC9F7880F911D51
:100CC0009695879597F90895E1E0660F771F881F3D
:100CD000BB1F621773078407BA0720F0621B730BF0
:100CE000840BBA0BEE1F88F7E09508950E947D06ED
:100CF0006894B1110C94580708950E943D0788F03C
:100D00009F5798F0B92F9927B751B0F0E1F0660FCF
:100D1000771F881F991F1AF0BA95C9F714C0B13010
:100D200091F00E945707B1E008950C945707672F80
:100D3000782F8827B85F39F0B93FCCF3869577953F
:100D40006795B395D9F73EF4909580957095619528
:100D50007F4F8F4F9F4F0895E89409C097FB3EF453
:100D600090958095709561957F4F8F4F9F4F9923F8
:100D7000A9F0F92F96E9BB279395F6958795779576
:100D80006795B795F111F8CFFAF4BB0F11F460FF36
:100D90001BC06F5F7F4F8F4F9F4F16C0882311F08E
:100DA00096E911C0772321F09EE8872F762F05C0A2
:100DB000662371F096E8862F70E060E02AF09A953D
:100DC000660F771F881FDAF7880F9695879597F932
:100DD0000895990F0008550FAA0BE0E8FEEF1616CC
:100DE0001706E807F907C0F012161306E407F5071F
:100DF00098F0621B730B840B950B39F40A2661F093
:100E0000232B242B252B21F408950A2609F4A14035
:100E1000A6958FEF811D811D089597F99F6780E842
:100E200070E060E008959FEF80EC089500240A943C
:100E30001616170618060906089500240A941216B5
:100E40001306140605060895092E0394000C11F4E8
:100E5000882352F0BB0F40F4BF2B11F460FF04C095
:100E60006F5F7F4F8F4F9F4F089557FD9058440FEE
:100E7000551F59F05F3F71F04795880F97FB991FF9
:100E800061F09F3F79F087950895121613061406B6
:100E9000551FF2CF4695F1DF08C016161706180643
:100EA000991FF1CF86957105610508940895E8941E
:100EB000BB2766277727CB0197F908950E94710712
:100EC0000C9424070E94160738F00E941D0720F09A
:100ED000952311F00C940D070C94130711240C9416
:100EE00058070E94350770F3959FC1F3950F50E0A6
:100EF000551F629FF001729FBB27F00DB11D639FCC
:100F0000AA27F00DB11DAA1F649F6627B00DA11D71
:100F1000661F829F2227B00DA11D621F739FB00D17
:100F2000A11D621F839FA00D611D221F749F332787
:100F3000A00D611D231F849F600D211D822F762F20
:100F40006A2F11249F5750409AF0F1F088234AF0FD
:100F5000EE0FFF1FBB1F661F771F881F9150504069
:100F6000A9F79E3F510580F00C940D070C9458078B
:100F70005F3FE4F3983ED4F3869577956795B795F0
:100F8000F795E7959F5FC1F7FE2B880F911D96950A
:100F9000879597F9089597FB072E16F4009407D0CC
:100FA00077FD09D00E94EE0707FC05D03EF490952E
:100FB00081959F4F0895709561957F4F0895A29FE9
:100FC000B001B39FC001A39F700D811D1124911D1D
:100FD000B29F700D811D1124911D0895AA1BBB1B8A
:100FE00051E107C0AA1FBB1FA617B70710F0A61B29
:100FF000B70B881F991F5A95A9F780959095BC014A
:08100000CD010895F894FFCF23
:101008004572726F720020202043616C63756C61B9
:10101800746F7220003738392F3435362A3132331D
:101028002D63303D2B02020202020202020202027A
:101038000202020202020202020101010100000092
:061048000000000202009E
:00000001FF
